:107000000C9453380C948F380C9470380C9470385E
:107010000C9470380C9470380C9470380C94703850
:107020000C9470380C9470380C9470380C94703840
:107030000C9470380C9470380C9470380C94703830
:107040000C9470380C9470380C9470380C94703820
:107050000C947038040309041C0377007700770050
:107060002E00660069007300630068006C002E004B
:10707000640065000E035500530042006100730078
:10708000700012011001FF000008C016DC050201AB
:10709000010200010902120001010080320904000E
:1070A00000000000000011241FBECFE5D8E0DEBFC5
:1070B000CDBF10E0A0E6B0E0E0ECF9E702C005903B
:1070C0000D92A636B107D9F710E0A6E6B0E001C0F0
:1070D0001D92AF39B107E1F70E94F2390C94DE3C02
:1070E0000C940038A82FB92F8FEF9FEF41E050EAA2
:1070F000615070F02D9138E0722F78279695879522
:10710000269570FF02C0842795273A95A9F7F0CFFE
:10711000809590950895E6DF8D939D930895CF9384
:10712000CFB7CF93849BFECF849B09C0849B07C0BD
:10713000849B05C0849B03C0849B01C0A1C0DF93D6
:10714000C0918200DD27C757DF4F849B02C0DF91CB
:10715000EBCF2F930F931F9300B32FEF04FB20F976
:107160004F933F9310B34FEF012704FB21F93BE00E
:1071700031C04E7F012F10B3216028C0102F4D7FEA
:107180002260000000B329C04B7F2460012F000063
:1071900010B32BC010B3477F28602AC04F7E00B3C6
:1071A00020612CC04F7D10B320622FC04F7B00B3F5
:1071B000206432C0422700B349934FEF00001027EC
:1071C00014FB20F910B31471C9F1297F91F2012742
:1071D00004FB21F900B3237F89F2315058F11027C5
:1071E00014FB22F910B3277E79F2012704FB23F95F
:1071F0002F7C81F200B3102714FB24F92F7971F250
:1072000000C010B3012704FB25F92F7359F200C009
:1072100000B3102714FB26F9223040F200C010B34F
:10722000012704FB27F9243028F64F77206810B394
:107230000000F9CF10E41ABF002717C03B5031956A
:10724000C31BD04010E41ABF0881033CE9F00B34A3
:10725000D9F0209180001981110F1213EDCF09365A
:1072600041F10D3211F0013E39F7009387003F9153
:107270004F911F910F912F91DF91CAB7C6FD52CF49
:10728000CF91CFBFCF91189500918700002379F35C
:1072900010918500112349F534304AF1309385006F
:1072A00000938100109182003BE0311B30938200FB
:1072B0001EC0009185000130C4F40AE530916100E0
:1072C00034FD17C000936100C5E7D0E016C0052764
:1072D00010E002BB1FC0052722C0052727C00527D5
:1072E0002CC0052710E002BB33C04AE503C042EDC5
:1072F00001C0432FC4E1D0E032E011B31461949A8D
:1073000002B311BB5F9354E120E820FF052702BBC5
:10731000279517951C3FD8F620FF0527279502BB18
:1073200017951C3FC0F620FF05272795179502BB30
:107330001C3F98F620FF0527279517951C3F02BB99
:1073400070F600C0499120FF052702BB27951795CD
:107350001C3F38F620FF0527279502BB17951C3FD9
:1073600038F520FF05272795179502BB1C3F10F520
:1073700020FF0527279517951C3F02BBE8F4242F13
:107380003A9519F60B7E5F9102BB10918600110FA2
:10739000C651D04011F01093800010E41ABF006174
:1073A00011B31B7E402F4B7E02BB11BB42BB5FCF94
:1073B0000527D3CF0527D8CF0527DDCF9C01E1993D
:1073C000FECF3FBB2EBBE09A8DB308959C01E1999F
:1073D000FECF3FBB2EBB6DBB0FB6F894E29AE19A8D
:1073E0000FBE08952F923F924F925F926F927F92BD
:1073F0008F929F92AF92BF92CF92DF92EF92FF92C5
:107400000F931F93CF93DF93B89A88B3816288BBA1
:1074100081E08BBF82E08BBFB5994EC285B7836098
:1074200085BF8BB780648BBF8C9A20E048EB5BE014
:1074300004C0A895CA010197F1F72150D1F78C98A3
:107440007894CC24DD24C0E0D0E0EE24EA944EE72A
:10745000A42E40E0B42E38E5832E30E7932E24E5A9
:10746000622E20E7722E94E9492E90E7592E82E889
:10747000282E80E7382E8091850018160CF07EC1EA
:10748000082F035080918200ACE0B0E0A81BB10946
:10749000A757BF4F809181008D3209F0EDC04AE5BA
:1074A00040936100083009F05FC13C91832F8076E2
:1074B00011962C911197882309F066C010927E00D6
:1074C000222349F410927F00B0928400A09283009E
:1074D00020E892E0C2C0253031F412968C911297C8
:1074E00080938600B8C02630B1F513968C9113971F
:1074F000813029F4309284002092830006C08230CB
:1075000039F4509284004092830020EC92E1A5C0AF
:10751000833009F09EC012968C911297882331F423
:10752000709284006092830020EC68C0813039F44E
:10753000909284008092830020EC9CE18EC0823087
:1075400009F087C084E790E79093840080938300DC
:1075500020EC9EE082C0283039F488E890E09093D7
:107560008400809383004EC0293031F412968C91B0
:107570001297809388006FC02A3009F06CC0B092D7
:107580008400A09283003EC086E690E09093840041
:1075900080938300233009F033C013963C911397F6
:1075A0001496EC91149712968C911297803331F4C3
:1075B000E370F0E0EE59FF4FE0811DC0803A49F4DE
:1075C0008E2F932FE199FECF9FBB8EBBE09AEDB338
:1075D00012C0803C79F415962C9115978E2F932F1D
:1075E000E199FECF9FBB8EBB2DBB0FB6F894E29AFC
:1075F000E19A0FBEE0E0E093690020E894E02DC03E
:10760000253019F420E891E028C0822F845086307C
:10761000D0F412968D919C91139790936D00809366
:107620006C002930C1F016969C91169790937000CB
:1076300015968C918270809371002093720037FDB3
:1076400012C06FEF11C0223031F491E090936B00C3
:1076500002C020EC01C020E890E017968C911797AB
:10766000882321F084C0692F20E082C016966C9197
:10767000691708F47DC07BC080916A0087FD74C0E3
:10768000C09880917000801708F4082F801B8093A9
:107690007000FF24882311F4FF24F394809172007A
:1076A000873008F457C010E026EE39E3A801BD0189
:1076B00080916C0090916D000E948B3C80916C00D9
:1076C00090916D00080F191F10936D0000936C00CE
:1076D00044C0025020916C0030916D00C9018F7739
:1076E0009070892B51F4F89443E0F90140935700CE
:1076F000E895789407B600FCFDCFF8948D919D91A4
:1077000041E00C01F90140935700E8951124789469
:10771000C901029690936D0080936C008F779070F2
:10772000892B41F01016B4F0FF20A1F08091710078
:10773000882381F0F89485E0F90180935700E8955B
:10774000789407B600FCFDCFF89491E19093570030
:10775000E895789410160CF4BCCFFF2011F020E0CF
:1077600004C020E06FEF04C020E860E001C0692F92
:1077700020936A0060936000109285008091610000
:1077800084FF83C0809160008F3F09F47EC0082F82
:10779000893008F008E0801B8093600080916A00C7
:1077A00080FD02C01BE401C013EC8F5F80936A0070
:1077B00087FF26C0209183003091840086FD05C09C
:1077C000D901902FE6E7F0E011C0A6E7B0E080E035
:1077D00090E006C0F901E80FF91FE491ED930196DE
:1077E0000817C1F705C08D91819391509923D9F75E
:1077F000F901E00FF11DF0938400E093830032C0A3
:10780000002381F1C09880917000801708F4082F40
:10781000801B8093700080917200873068F06091C7
:107820006C0070916D002EED39E3402F50E086E73B
:1078300090E00E946F3C0AC060916C0070916D00F6
:10784000402F50E086E790E00E94663C80916C00FB
:1078500090916D00800F911D90936D0080936C004E
:10786000093060F4602F86E790E00E948B38802F0B
:107870008C5F083031F0E092600003C0E09260005D
:107880008EE110937500809361009AE080B384715B
:1078900031F49150D9F710928600109280008091B7
:1078A0006B00882311F0219739F00894C11CD11C7A
:1078B000D6FCC09AB59BDFCDC098F89481E08BBF11
:1078C0001BBEE0917300F09174000995FB01DC018F
:1078D00002C005900D9241505040D8F70895A0E0A5
:1078E000B0E0E5E7FCE30C94B13C7C01EB018A01DC
:1078F000690109C0CE012196F6010995F70181932E
:107900007F010150104001151105A1F7CDB7DEB779
:10791000E8E00C94CD3CA0E0B0E0E1E9FCE30C949D
:10792000B13CEC017B018A01690109C0F701619159
:107930007F01CE012196F6010995015010400115F5
:107940001105A1F7CDB7DEB7E8E00C94CD3C2F923E
:107950003F924F925F926F927F928F929F92AF92DF
:10796000BF92CF92DF92EF92FF920F931F93CF932C
:10797000DF93CDB7DEB7CA1BDB0B0FB6F894DEBFC3
:107980000FBECDBF09942A88398848885F846E84E9
:107990007D848C849B84AA84B984C884DF80EE8033
:1079A000FD800C811B81AA81B981CE0FD11D0FB63C
:1079B000F894DEBF0FBECDBFED010895F894FFCF60
:0679C000FF5A1E950200B3
:040000030000700089
:00000001FF
